{
  "_format": "hh-sol-artifact-1",
  "contractName": "Sanscript",
  "sourceName": "contracts/Sanscript.sol",
  "abi": [
    {
      "inputs": [
        {
          "internalType": "contract IERC20",
          "name": "_usdc",
          "type": "address"
        },
        {
          "internalType": "uint256",
          "name": "_price",
          "type": "uint256"
        },
        {
          "internalType": "contract IEAS",
          "name": "_eas",
          "type": "address"
        },
        {
          "internalType": "bytes32",
          "name": "_easSchema",
          "type": "bytes32"
        },
        {
          "internalType": "contract IWorldID",
          "name": "_worldId",
          "type": "address"
        },
        {
          "internalType": "string",
          "name": "_appId",
          "type": "string"
        },
        {
          "internalType": "string",
          "name": "_action",
          "type": "string"
        }
      ],
      "stateMutability": "nonpayable",
      "type": "constructor"
    },
    {
      "inputs": [],
      "name": "InvalidNullifier",
      "type": "error"
    },
    {
      "anonymous": false,
      "inputs": [
        {
          "indexed": false,
          "internalType": "address",
          "name": "newsletterOwner",
          "type": "address"
        },
        {
          "indexed": false,
          "internalType": "uint8",
          "name": "newsletterNonce",
          "type": "uint8"
        },
        {
          "indexed": false,
          "internalType": "string",
          "name": "image",
          "type": "string"
        },
        {
          "indexed": false,
          "internalType": "string",
          "name": "title",
          "type": "string"
        },
        {
          "indexed": false,
          "internalType": "string",
          "name": "description",
          "type": "string"
        },
        {
          "indexed": false,
          "internalType": "address",
          "name": "token",
          "type": "address"
        },
        {
          "indexed": false,
          "internalType": "uint256",
          "name": "pricePerMonth",
          "type": "uint256"
        }
      ],
      "name": "AddedNewsletter",
      "type": "event"
    },
    {
      "anonymous": false,
      "inputs": [
        {
          "indexed": false,
          "internalType": "address",
          "name": "newsletterOwner",
          "type": "address"
        },
        {
          "indexed": false,
          "internalType": "uint8",
          "name": "newsletterNonce",
          "type": "uint8"
        },
        {
          "indexed": false,
          "internalType": "uint256",
          "name": "newPrice",
          "type": "uint256"
        }
      ],
      "name": "ChangedNewsletterPrice",
      "type": "event"
    },
    {
      "anonymous": false,
      "inputs": [
        {
          "indexed": true,
          "internalType": "address",
          "name": "previousOwner",
          "type": "address"
        },
        {
          "indexed": true,
          "internalType": "address",
          "name": "newOwner",
          "type": "address"
        }
      ],
      "name": "OwnershipTransferred",
      "type": "event"
    },
    {
      "anonymous": false,
      "inputs": [
        {
          "indexed": false,
          "internalType": "address",
          "name": "owner",
          "type": "address"
        }
      ],
      "name": "VerifiedHumanOwner",
      "type": "event"
    },
    {
      "inputs": [
        {
          "internalType": "string",
          "name": "image",
          "type": "string"
        },
        {
          "internalType": "string",
          "name": "title",
          "type": "string"
        },
        {
          "internalType": "string",
          "name": "description",
          "type": "string"
        },
        {
          "internalType": "address",
          "name": "token",
          "type": "address"
        },
        {
          "internalType": "uint256",
          "name": "pricePerMonth",
          "type": "uint256"
        }
      ],
      "name": "addNewsletter",
      "outputs": [],
      "stateMutability": "nonpayable",
      "type": "function"
    },
    {
      "inputs": [
        {
          "internalType": "uint8",
          "name": "newsletterNonce",
          "type": "uint8"
        },
        {
          "internalType": "uint256",
          "name": "newPrice",
          "type": "uint256"
        }
      ],
      "name": "changeNewsletterPrice",
      "outputs": [],
      "stateMutability": "nonpayable",
      "type": "function"
    },
    {
      "inputs": [
        {
          "internalType": "uint256",
          "name": "newPrice",
          "type": "uint256"
        }
      ],
      "name": "changePriceProvider",
      "outputs": [],
      "stateMutability": "nonpayable",
      "type": "function"
    },
    {
      "inputs": [
        {
          "internalType": "address",
          "name": "",
          "type": "address"
        },
        {
          "internalType": "uint256",
          "name": "",
          "type": "uint256"
        }
      ],
      "name": "newsletter",
      "outputs": [
        {
          "internalType": "string",
          "name": "image",
          "type": "string"
        },
        {
          "internalType": "string",
          "name": "title",
          "type": "string"
        },
        {
          "internalType": "string",
          "name": "description",
          "type": "string"
        },
        {
          "internalType": "address",
          "name": "token",
          "type": "address"
        },
        {
          "internalType": "uint256",
          "name": "pricePerMonth",
          "type": "uint256"
        }
      ],
      "stateMutability": "view",
      "type": "function"
    },
    {
      "inputs": [],
      "name": "owner",
      "outputs": [
        {
          "internalType": "address",
          "name": "",
          "type": "address"
        }
      ],
      "stateMutability": "view",
      "type": "function"
    },
    {
      "inputs": [],
      "name": "price",
      "outputs": [
        {
          "internalType": "uint256",
          "name": "",
          "type": "uint256"
        }
      ],
      "stateMutability": "view",
      "type": "function"
    },
    {
      "inputs": [],
      "name": "renounceOwnership",
      "outputs": [],
      "stateMutability": "nonpayable",
      "type": "function"
    },
    {
      "inputs": [
        {
          "internalType": "address",
          "name": "newsletterOwner",
          "type": "address"
        },
        {
          "internalType": "uint8",
          "name": "newsletterNonce",
          "type": "uint8"
        }
      ],
      "name": "subscribeNewsletter",
      "outputs": [],
      "stateMutability": "nonpayable",
      "type": "function"
    },
    {
      "inputs": [
        {
          "internalType": "address",
          "name": "newOwner",
          "type": "address"
        }
      ],
      "name": "transferOwnership",
      "outputs": [],
      "stateMutability": "nonpayable",
      "type": "function"
    },
    {
      "inputs": [
        {
          "internalType": "address",
          "name": "signal",
          "type": "address"
        },
        {
          "internalType": "uint256",
          "name": "root",
          "type": "uint256"
        },
        {
          "internalType": "uint256",
          "name": "nullifierHash",
          "type": "uint256"
        },
        {
          "internalType": "uint256[8]",
          "name": "proof",
          "type": "uint256[8]"
        }
      ],
      "name": "verifyAndExecute",
      "outputs": [],
      "stateMutability": "nonpayable",
      "type": "function"
    }
  ],
  "bytecode": "0x6101406040526001610120523480156200001857600080fd5b5060405162001b6c38038062001b6c8339810160408190526200003b9162000239565b6200004633620000cc565b6001600160a01b0380881660805285811660a05260c08590526003879055831660e052604051620000ba90620000a69062000086908590602001620002f7565b6040516020818303038152906040526200011c60201b62000d0f1760201c565b826040516020016200008692919062000315565b61010052506200033d95505050505050565b600080546001600160a01b038381166001600160a01b0319831681178455604051919092169283917f8be0079c531659141344cd1fd0a4f28419497f9722a3daafe3b4186f6b6457e09190a35050565b6000600882604051602001620001339190620002f7565b60408051601f198184030181529190528051602090910120901c92915050565b6001600160a01b03811681146200016957600080fd5b50565b634e487b7160e01b600052604160045260246000fd5b60005b838110156200019f57818101518382015260200162000185565b50506000910152565b600082601f830112620001ba57600080fd5b81516001600160401b0380821115620001d757620001d76200016c565b604051601f8301601f19908116603f011681019082821181831017156200020257620002026200016c565b816040528381528660208588010111156200021c57600080fd5b6200022f84602083016020890162000182565b9695505050505050565b600080600080600080600060e0888a0312156200025557600080fd5b8751620002628162000153565b602089015160408a015191985096506200027c8162000153565b606089015160808a01519196509450620002968162000153565b60a08901519093506001600160401b0380821115620002b457600080fd5b620002c28b838c01620001a8565b935060c08a0151915080821115620002d957600080fd5b50620002e88a828b01620001a8565b91505092959891949750929550565b600082516200030b81846020870162000182565b9190910192915050565b828152600082516200032f81602085016020870162000182565b919091016020019392505050565b60805160a05160c05160e05161010051610120516117d8620003946000396000610b6101526000610bc301526000610b3101526000610f4701526000610f85015260008181610373015261043a01526117d86000f3fe608060405234801561001057600080fd5b506004361061009e5760003560e01c8063a035b1fe11610066578063a035b1fe1461011b578063bf03517314610132578063dd6412df14610145578063e9b7055314610158578063f2fde38b1461016b57600080fd5b8063320954de146100a3578063358ab3ab146100d05780636fc3cf37146100e5578063715018a6146100f85780638da5cb5b14610100575b600080fd5b6100b66100b13660046110f4565b61017e565b6040516100c795949392919061116e565b60405180910390f35b6100e36100de3660046111c5565b610359565b005b6100e36100f3366004611281565b610366565b6100e361062d565b6000546040516001600160a01b0390911681526020016100c7565b61012460035481565b6040519081526020016100c7565b6100e3610140366004611333565b610641565b6100e3610153366004611366565b610a23565b6100e3610166366004611382565b610aff565b6100e36101793660046113d0565b610c96565b60026020908152600092835260408084209091529082529020805481906101a4906113eb565b80601f01602080910402602001604051908101604052809291908181526020018280546101d0906113eb565b801561021d5780601f106101f25761010080835404028352916020019161021d565b820191906000526020600020905b81548152906001019060200180831161020057829003601f168201915b505050505090806001018054610232906113eb565b80601f016020809104026020016040519081016040528092919081815260200182805461025e906113eb565b80156102ab5780601f10610280576101008083540402835291602001916102ab565b820191906000526020600020905b81548152906001019060200180831161028e57829003601f168201915b5050505050908060020180546102c0906113eb565b80601f01602080910402602001604051908101604052809291908181526020018280546102ec906113eb565b80156103395780601f1061030e57610100808354040283529160200191610339565b820191906000526020600020905b81548152906001019060200180831161031c57829003601f168201915b50505050600383015460049093015491926001600160a01b031691905085565b610361610d44565b600355565b6003546001600160a01b037f00000000000000000000000000000000000000000000000000000000000000001663dd62ed3e336040516001600160e01b031960e084901b1681526001600160a01b039091166004820152306024820152604401602060405180830381865afa1580156103e3573d6000803e3d6000fd5b505050506040513d601f19601f820116820180604052508101906104079190611425565b101561042e5760405162461bcd60e51b81526004016104259061143e565b60405180910390fd5b60006001600160a01b037f0000000000000000000000000000000000000000000000000000000000000000166323b872dd336000546001600160a01b03166003546040518463ffffffff1660e01b815260040161048d9392919061146e565b6020604051808303816000875af11580156104ac573d6000803e3d6000fd5b505050506040513d601f19601f820116820180604052508101906104d09190611492565b9050806104ef5760405162461bcd60e51b8152600401610425906114bb565b33600081815260016020908152604080832054815160a0810183528b81528084018b90528083018a90526001600160a01b0389166060820152608081018890529484526002835281842060ff9091168085529252909120825191929181906105579082611533565b506020820151600182019061056c9082611533565b50604082015160028201906105819082611533565b5060608201516003820180546001600160a01b0319166001600160a01b039092169190911790556080909101516004909101556105bf816001611609565b3360008181526001602052604090819020805460ff191660ff949094169390931790925590517f1086fa2e9f5e2cd1e7ddcf0820740d11d51bbf2985bcbe370d5ca97dfa50fb979161061c9184908b908b908b908b908b90611622565b60405180910390a150505050505050565b610635610d44565b61063f6000610d9e565b565b6001600160a01b038216600090815260026020908152604080832060ff85168452909152808220815160a08101909252805482908290610680906113eb565b80601f01602080910402602001604051908101604052809291908181526020018280546106ac906113eb565b80156106f95780601f106106ce576101008083540402835291602001916106f9565b820191906000526020600020905b8154815290600101906020018083116106dc57829003601f168201915b50505050508152602001600182018054610712906113eb565b80601f016020809104026020016040519081016040528092919081815260200182805461073e906113eb565b801561078b5780601f106107605761010080835404028352916020019161078b565b820191906000526020600020905b81548152906001019060200180831161076e57829003601f168201915b505050505081526020016002820180546107a4906113eb565b80601f01602080910402602001604051908101604052809291908181526020018280546107d0906113eb565b801561081d5780601f106107f25761010080835404028352916020019161081d565b820191906000526020600020905b81548152906001019060200180831161080057829003601f168201915b505050918352505060038201546001600160a01b03166020808301919091526004909201546040909101528101515190915061089b5760405162461bcd60e51b815260206004820152601e60248201527f54686973206e6577736c657474657220646f6573206e6f7420657869737400006044820152606401610425565b600081606001516001600160a01b031663dd62ed3e6108b73390565b6040516001600160e01b031960e084901b1681526001600160a01b039091166004820152306024820152604401602060405180830381865afa158015610901573d6000803e3d6000fd5b505050506040513d601f19601f820116820180604052508101906109259190611425565b9050816080015181101561094b5760405162461bcd60e51b81526004016104259061143e565b600061095b828460800151610dee565b915050600061096e828560800151610e22565b915050600084606001516001600160a01b03166323b872dd61098d3390565b89856040518463ffffffff1660e01b81526004016109ad9392919061146e565b6020604051808303816000875af11580156109cc573d6000803e3d6000fd5b505050506040513d601f19601f820116820180604052508101906109f09190611492565b905080610a0f5760405162461bcd60e51b8152600401610425906114bb565b610a1a838888610e6b565b50505050505050565b33600081815260026020908152604080832060ff871684529091528120600401549003610a8d5760405162461bcd60e51b8152602060048201526018602482015277496e76616c6964206e6577736c6574746572206e6f6e636560401b6044820152606401610425565b6001600160a01b038116600081815260026020908152604080832060ff88168085529083529281902060040186905580519384529083019190915281018390527f3aaff989d036de74bed7183b5afb30e70f7a9406820be0ba0dbacc4a652fef419060600160405180910390a1505050565b60008281526004602052604090205460ff1615610b2f57604051632ec8265960e11b815260040160405180910390fd5b7f00000000000000000000000000000000000000000000000000000000000000006001600160a01b0316633bc778e3847f0000000000000000000000000000000000000000000000000000000000000000610bc088604051602001610bac919060609190911b6bffffffffffffffffffffffff1916815260140190565b604051602081830303815290604052610d0f565b867f0000000000000000000000000000000000000000000000000000000000000000876040518763ffffffff1660e01b8152600401610c049695949392919061168b565b60006040518083038186803b158015610c1c57600080fd5b505afa158015610c30573d6000803e3d6000fd5b5050506000838152600460205260409020805460ff19166001179055507f5ec11bffe9ae1758125626544f36d2262a662a4b95db881ccdb10a7ff696b74a610c753390565b6040516001600160a01b03909116815260200160405180910390a150505050565b610c9e610d44565b6001600160a01b038116610d035760405162461bcd60e51b815260206004820152602660248201527f4f776e61626c653a206e6577206f776e657220697320746865207a65726f206160448201526564647265737360d01b6064820152608401610425565b610d0c81610d9e565b50565b6000600882604051602001610d2491906116c3565b60408051601f198184030181529190528051602090910120901c92915050565b6000546001600160a01b0316331461063f5760405162461bcd60e51b815260206004820181905260248201527f4f776e61626c653a2063616c6c6572206973206e6f7420746865206f776e65726044820152606401610425565b600080546001600160a01b038381166001600160a01b0319831681178455604051919092169283917f8be0079c531659141344cd1fd0a4f28419497f9722a3daafe3b4186f6b6457e09190a35050565b60008082600003610e0457506000905080610e1b565b6001838581610e1557610e156116df565b04915091505b9250929050565b60008083600003610e395750600190506000610e1b565b83830283858281610e4c57610e4c6116df565b0414610e5f576000809250925050610e1b565b60019590945092505050565b604080518082019091526001600160a01b038316815260ff821660208201526000610e9962278d0086611056565b610ea390426116f5565b6040805160c0810182526000602082018190529181018290526060808201839052608082015260a0810191909152338152909150610ee08261106b565b67ffffffffffffffff166020828101919091526000604080840191909152805185516001600160a01b0316818401529185015160ff169082015260600160408051601f198184030181529181526080830191909152600060a08301819052815180830183527f0000000000000000000000000000000000000000000000000000000000000000815260208101849052915163f17325e760e01b81526001600160a01b037f0000000000000000000000000000000000000000000000000000000000000000169063f17325e790610fba908590600401611708565b6020604051808303816000875af1158015610fd9573d6000803e3d6000fd5b505050506040513d601f19601f82011682018060405250810190610ffd9190611425565b90508061104c5760405162461bcd60e51b815260206004820152601a60248201527f4661696c656420746f20637265617465206174746573745569640000000000006044820152606401610425565b5050505050505050565b6000611062828461178b565b90505b92915050565b600067ffffffffffffffff8211156110d45760405162461bcd60e51b815260206004820152602660248201527f53616665436173743a2076616c756520646f65736e27742066697420696e203660448201526534206269747360d01b6064820152608401610425565b5090565b80356001600160a01b03811681146110ef57600080fd5b919050565b6000806040838503121561110757600080fd5b611110836110d8565b946020939093013593505050565b60005b83811015611139578181015183820152602001611121565b50506000910152565b6000815180845261115a81602086016020860161111e565b601f01601f19169290920160200192915050565b60a08152600061118160a0830188611142565b82810360208401526111938188611142565b905082810360408401526111a78187611142565b6001600160a01b039590951660608401525050608001529392505050565b6000602082840312156111d757600080fd5b5035919050565b634e487b7160e01b600052604160045260246000fd5b600082601f83011261120557600080fd5b813567ffffffffffffffff80821115611220576112206111de565b604051601f8301601f19908116603f01168101908282118183101715611248576112486111de565b8160405283815286602085880101111561126157600080fd5b836020870160208301376000602085830101528094505050505092915050565b600080600080600060a0868803121561129957600080fd5b853567ffffffffffffffff808211156112b157600080fd5b6112bd89838a016111f4565b965060208801359150808211156112d357600080fd5b6112df89838a016111f4565b955060408801359150808211156112f557600080fd5b50611302888289016111f4565b935050611311606087016110d8565b949793965091946080013592915050565b803560ff811681146110ef57600080fd5b6000806040838503121561134657600080fd5b61134f836110d8565b915061135d60208401611322565b90509250929050565b6000806040838503121561137957600080fd5b61111083611322565b60008060008061016080868803121561139a57600080fd5b6113a3866110d8565b945060208601359350604086013592508681870111156113c257600080fd5b509295919450926060019150565b6000602082840312156113e257600080fd5b611062826110d8565b600181811c908216806113ff57607f821691505b60208210810361141f57634e487b7160e01b600052602260045260246000fd5b50919050565b60006020828403121561143757600080fd5b5051919050565b602080825260169082015275496e73756666696369656e7420616c6c6f77616e636560501b604082015260600190565b6001600160a01b039384168152919092166020820152604081019190915260600190565b6000602082840312156114a457600080fd5b815180151581146114b457600080fd5b9392505050565b6020808252600f908201526e151c985b9cd9995c8819985a5b1959608a1b604082015260600190565b601f82111561152e57600081815260208120601f850160051c8101602086101561150b5750805b601f850160051c820191505b8181101561152a57828155600101611517565b5050505b505050565b815167ffffffffffffffff81111561154d5761154d6111de565b6115618161155b84546113eb565b846114e4565b602080601f831160018114611596576000841561157e5750858301515b600019600386901b1c1916600185901b17855561152a565b600085815260208120601f198616915b828110156115c5578886015182559484019460019091019084016115a6565b50858210156115e35787850151600019600388901b60f8161c191681555b5050505050600190811b01905550565b634e487b7160e01b600052601160045260246000fd5b60ff8181168382160190811115611065576110656115f3565b600060018060a01b03808a16835260ff8916602084015260e0604084015261164d60e0840189611142565b838103606085015261165f8189611142565b905083810360808501526116738188611142565b9590911660a0840152505060c0015295945050505050565b60006101a0820190508782528660208301528560408301528460608301528360808301526101008360a0840137979650505050505050565b600082516116d581846020870161111e565b9190910192915050565b634e487b7160e01b600052601260045260246000fd5b80820180821115611065576110656115f3565b60208152815160208201526000602083015160408084015260018060a01b03815116606084015267ffffffffffffffff60208201511660808401526040810151151560a0840152606081015160c0840152608081015160c060e0850152611773610120850182611142565b905060a0820151610100850152809250505092915050565b8082028115828204841417611065576110656115f356fea2646970667358221220c0410c06261f5cd02684eda20cd8b2ec6634b2ad28eb7196b26cdeec0919260664736f6c63430008120033",
  "linkReferences": {},
  "deployedLinkReferences": {}
}