{
  "_format": "hh-sol-artifact-1",
  "contractName": "Sanscript",
  "sourceName": "contracts/Sanscript.sol",
  "abi": [
    {
      "inputs": [
        {
          "internalType": "contract IERC20",
          "name": "_usdc",
          "type": "address"
        },
        {
          "internalType": "uint256",
          "name": "_price",
          "type": "uint256"
        },
        {
          "internalType": "contract IEAS",
          "name": "_eas",
          "type": "address"
        },
        {
          "internalType": "bytes32",
          "name": "_easSchema",
          "type": "bytes32"
        },
        {
          "internalType": "contract IWorldID",
          "name": "_worldId",
          "type": "address"
        },
        {
          "internalType": "string",
          "name": "_appId",
          "type": "string"
        },
        {
          "internalType": "string",
          "name": "_action",
          "type": "string"
        }
      ],
      "stateMutability": "nonpayable",
      "type": "constructor"
    },
    {
      "inputs": [],
      "name": "InvalidNullifier",
      "type": "error"
    },
    {
      "anonymous": false,
      "inputs": [
        {
          "indexed": false,
          "internalType": "address",
          "name": "newsletterOwner",
          "type": "address"
        },
        {
          "indexed": false,
          "internalType": "uint8",
          "name": "newsletterNonce",
          "type": "uint8"
        },
        {
          "indexed": false,
          "internalType": "string",
          "name": "image",
          "type": "string"
        },
        {
          "indexed": false,
          "internalType": "string",
          "name": "title",
          "type": "string"
        },
        {
          "indexed": false,
          "internalType": "string",
          "name": "description",
          "type": "string"
        },
        {
          "indexed": false,
          "internalType": "uint256",
          "name": "pricePerMonth",
          "type": "uint256"
        }
      ],
      "name": "AddedNewsletter",
      "type": "event"
    },
    {
      "anonymous": false,
      "inputs": [
        {
          "indexed": false,
          "internalType": "address",
          "name": "newsletterOwner",
          "type": "address"
        },
        {
          "indexed": false,
          "internalType": "uint8",
          "name": "newsletterNonce",
          "type": "uint8"
        },
        {
          "indexed": false,
          "internalType": "uint256",
          "name": "newPrice",
          "type": "uint256"
        }
      ],
      "name": "ChangedNewsletterPrice",
      "type": "event"
    },
    {
      "anonymous": false,
      "inputs": [
        {
          "indexed": true,
          "internalType": "address",
          "name": "previousOwner",
          "type": "address"
        },
        {
          "indexed": true,
          "internalType": "address",
          "name": "newOwner",
          "type": "address"
        }
      ],
      "name": "OwnershipTransferred",
      "type": "event"
    },
    {
      "anonymous": false,
      "inputs": [
        {
          "indexed": false,
          "internalType": "address",
          "name": "owner",
          "type": "address"
        }
      ],
      "name": "VerifiedHumanOwner",
      "type": "event"
    },
    {
      "inputs": [
        {
          "internalType": "string",
          "name": "image",
          "type": "string"
        },
        {
          "internalType": "string",
          "name": "title",
          "type": "string"
        },
        {
          "internalType": "string",
          "name": "description",
          "type": "string"
        },
        {
          "internalType": "uint256",
          "name": "pricePerMonth",
          "type": "uint256"
        }
      ],
      "name": "addNewsletter",
      "outputs": [],
      "stateMutability": "nonpayable",
      "type": "function"
    },
    {
      "inputs": [
        {
          "internalType": "uint8",
          "name": "newsletterNonce",
          "type": "uint8"
        },
        {
          "internalType": "uint256",
          "name": "newPrice",
          "type": "uint256"
        }
      ],
      "name": "changeNewsletterPrice",
      "outputs": [],
      "stateMutability": "nonpayable",
      "type": "function"
    },
    {
      "inputs": [
        {
          "internalType": "uint256",
          "name": "newPrice",
          "type": "uint256"
        }
      ],
      "name": "changePriceProvider",
      "outputs": [],
      "stateMutability": "nonpayable",
      "type": "function"
    },
    {
      "inputs": [
        {
          "internalType": "address",
          "name": "",
          "type": "address"
        },
        {
          "internalType": "uint256",
          "name": "",
          "type": "uint256"
        }
      ],
      "name": "newsletter",
      "outputs": [
        {
          "internalType": "string",
          "name": "image",
          "type": "string"
        },
        {
          "internalType": "string",
          "name": "title",
          "type": "string"
        },
        {
          "internalType": "string",
          "name": "description",
          "type": "string"
        },
        {
          "internalType": "uint256",
          "name": "pricePerMonth",
          "type": "uint256"
        }
      ],
      "stateMutability": "view",
      "type": "function"
    },
    {
      "inputs": [],
      "name": "owner",
      "outputs": [
        {
          "internalType": "address",
          "name": "",
          "type": "address"
        }
      ],
      "stateMutability": "view",
      "type": "function"
    },
    {
      "inputs": [],
      "name": "price",
      "outputs": [
        {
          "internalType": "uint256",
          "name": "",
          "type": "uint256"
        }
      ],
      "stateMutability": "view",
      "type": "function"
    },
    {
      "inputs": [],
      "name": "renounceOwnership",
      "outputs": [],
      "stateMutability": "nonpayable",
      "type": "function"
    },
    {
      "inputs": [
        {
          "internalType": "address",
          "name": "newsletterOwner",
          "type": "address"
        },
        {
          "internalType": "uint8",
          "name": "newsletterNonce",
          "type": "uint8"
        }
      ],
      "name": "subscribeNewsletter",
      "outputs": [],
      "stateMutability": "nonpayable",
      "type": "function"
    },
    {
      "inputs": [
        {
          "internalType": "address",
          "name": "newOwner",
          "type": "address"
        }
      ],
      "name": "transferOwnership",
      "outputs": [],
      "stateMutability": "nonpayable",
      "type": "function"
    },
    {
      "inputs": [
        {
          "internalType": "address",
          "name": "signal",
          "type": "address"
        },
        {
          "internalType": "uint256",
          "name": "root",
          "type": "uint256"
        },
        {
          "internalType": "uint256",
          "name": "nullifierHash",
          "type": "uint256"
        },
        {
          "internalType": "uint256[8]",
          "name": "proof",
          "type": "uint256[8]"
        }
      ],
      "name": "verifyAndExecute",
      "outputs": [],
      "stateMutability": "nonpayable",
      "type": "function"
    }
  ],
  "bytecode": "0x6101406040526001610120523480156200001857600080fd5b5060405162001b3138038062001b318339810160408190526200003b9162000239565b6200004633620000cc565b6001600160a01b0380881660805285811660a05260c08590526003879055831660e052604051620000ba90620000a69062000086908590602001620002f7565b6040516020818303038152906040526200011c60201b62000ce51760201c565b826040516020016200008692919062000315565b61010052506200033d95505050505050565b600080546001600160a01b038381166001600160a01b0319831681178455604051919092169283917f8be0079c531659141344cd1fd0a4f28419497f9722a3daafe3b4186f6b6457e09190a35050565b6000600882604051602001620001339190620002f7565b60408051601f198184030181529190528051602090910120901c92915050565b6001600160a01b03811681146200016957600080fd5b50565b634e487b7160e01b600052604160045260246000fd5b60005b838110156200019f57818101518382015260200162000185565b50506000910152565b600082601f830112620001ba57600080fd5b81516001600160401b0380821115620001d757620001d76200016c565b604051601f8301601f19908116603f011681019082821181831017156200020257620002026200016c565b816040528381528660208588010111156200021c57600080fd5b6200022f84602083016020890162000182565b9695505050505050565b600080600080600080600060e0888a0312156200025557600080fd5b8751620002628162000153565b602089015160408a015191985096506200027c8162000153565b606089015160808a01519196509450620002968162000153565b60a08901519093506001600160401b0380821115620002b457600080fd5b620002c28b838c01620001a8565b935060c08a0151915080821115620002d957600080fd5b50620002e88a828b01620001a8565b91505092959891949750929550565b600082516200030b81846020870162000182565b9190910192915050565b828152600082516200032f81602085016020870162000182565b919091016020019392505050565b60805160a05160c05160e051610100516101205161178f620003a26000396000610b3701526000610b9901526000610b0701526000610f1d01526000610f5b015260008181610362015281816104290152818161084b015261092f015261178f6000f3fe608060405234801561001057600080fd5b506004361061009e5760003560e01c8063a035b1fe11610066578063a035b1fe1461011a578063bf03517314610131578063dd6412df14610144578063e9b7055314610157578063f2fde38b1461016a57600080fd5b8063320954de146100a3578063358ab3ab146100cf578063542852a1146100e4578063715018a6146100f75780638da5cb5b146100ff575b600080fd5b6100b66100b13660046110ca565b61017d565b6040516100c69493929190611144565b60405180910390f35b6100e26100dd36600461118f565b610348565b005b6100e26100f236600461124b565b610355565b6100e26105e5565b6000546040516001600160a01b0390911681526020016100c6565b61012360035481565b6040519081526020016100c6565b6100e261013f3660046112ec565b6105f9565b6100e261015236600461131f565b6109f9565b6100e261016536600461133b565b610ad5565b6100e2610178366004611389565b610c6c565b60026020908152600092835260408084209091529082529020805481906101a3906113a4565b80601f01602080910402602001604051908101604052809291908181526020018280546101cf906113a4565b801561021c5780601f106101f15761010080835404028352916020019161021c565b820191906000526020600020905b8154815290600101906020018083116101ff57829003601f168201915b505050505090806001018054610231906113a4565b80601f016020809104026020016040519081016040528092919081815260200182805461025d906113a4565b80156102aa5780601f1061027f576101008083540402835291602001916102aa565b820191906000526020600020905b81548152906001019060200180831161028d57829003601f168201915b5050505050908060020180546102bf906113a4565b80601f01602080910402602001604051908101604052809291908181526020018280546102eb906113a4565b80156103385780601f1061030d57610100808354040283529160200191610338565b820191906000526020600020905b81548152906001019060200180831161031b57829003601f168201915b5050505050908060030154905084565b610350610d1a565b600355565b6003546001600160a01b037f00000000000000000000000000000000000000000000000000000000000000001663dd62ed3e336040516001600160e01b031960e084901b1681526001600160a01b039091166004820152306024820152604401602060405180830381865afa1580156103d2573d6000803e3d6000fd5b505050506040513d601f19601f820116820180604052508101906103f691906113de565b101561041d5760405162461bcd60e51b8152600401610414906113f7565b60405180910390fd5b60006001600160a01b037f0000000000000000000000000000000000000000000000000000000000000000166323b872dd336000546001600160a01b03166003546040518463ffffffff1660e01b815260040161047c93929190611427565b6020604051808303816000875af115801561049b573d6000803e3d6000fd5b505050506040513d601f19601f820116820180604052508101906104bf919061144b565b9050806104de5760405162461bcd60e51b815260040161041490611474565b3360008181526001602090815260408083205481516080810183528a81528084018a9052808301899052606081018890529484526002835281842060ff90911680855292529091208251919291819061053790826114ec565b506020820151600182019061054c90826114ec565b506040820151600282019061056190826114ec565b506060919091015160039091015561057a8160016115c2565b3360008181526001602052604090819020805460ff191660ff949094169390931790925590517f1046f9a139cea5eccf73721b539ccd6f33d7791e590a8186f2cbf366139ce78e916105d59184908a908a908a908a906115db565b60405180910390a1505050505050565b6105ed610d1a565b6105f76000610d74565b565b6001600160a01b038216600090815260026020908152604080832060ff85168452909152808220815160808101909252805482908290610638906113a4565b80601f0160208091040260200160405190810160405280929190818152602001828054610664906113a4565b80156106b15780601f10610686576101008083540402835291602001916106b1565b820191906000526020600020905b81548152906001019060200180831161069457829003601f168201915b505050505081526020016001820180546106ca906113a4565b80601f01602080910402602001604051908101604052809291908181526020018280546106f6906113a4565b80156107435780601f1061071857610100808354040283529160200191610743565b820191906000526020600020905b81548152906001019060200180831161072657829003601f168201915b5050505050815260200160028201805461075c906113a4565b80601f0160208091040260200160405190810160405280929190818152602001828054610788906113a4565b80156107d55780601f106107aa576101008083540402835291602001916107d5565b820191906000526020600020905b8154815290600101906020018083116107b857829003601f168201915b50505050508152602001600382015481525050905060008160200151511161083f5760405162461bcd60e51b815260206004820152601e60248201527f54686973206e6577736c657474657220646f6573206e6f7420657869737400006044820152606401610414565b60006001600160a01b037f00000000000000000000000000000000000000000000000000000000000000001663dd62ed3e336040516001600160e01b031960e084901b1681526001600160a01b039091166004820152306024820152604401602060405180830381865afa1580156108bb573d6000803e3d6000fd5b505050506040513d601f19601f820116820180604052508101906108df91906113de565b905081606001518110156109055760405162461bcd60e51b8152600401610414906113f7565b6000610915828460600151610dc4565b9150506000610928828560600151610df8565b91505060007f00000000000000000000000000000000000000000000000000000000000000006001600160a01b03166323b872dd6109633390565b89856040518463ffffffff1660e01b815260040161098393929190611427565b6020604051808303816000875af11580156109a2573d6000803e3d6000fd5b505050506040513d601f19601f820116820180604052508101906109c6919061144b565b9050806109e55760405162461bcd60e51b815260040161041490611474565b6109f0838888610e41565b50505050505050565b33600081815260026020908152604080832060ff871684529091528120600301549003610a635760405162461bcd60e51b8152602060048201526018602482015277496e76616c6964206e6577736c6574746572206e6f6e636560401b6044820152606401610414565b6001600160a01b038116600081815260026020908152604080832060ff88168085529083529281902060030186905580519384529083019190915281018390527f3aaff989d036de74bed7183b5afb30e70f7a9406820be0ba0dbacc4a652fef419060600160405180910390a1505050565b60008281526004602052604090205460ff1615610b0557604051632ec8265960e11b815260040160405180910390fd5b7f00000000000000000000000000000000000000000000000000000000000000006001600160a01b0316633bc778e3847f0000000000000000000000000000000000000000000000000000000000000000610b9688604051602001610b82919060609190911b6bffffffffffffffffffffffff1916815260140190565b604051602081830303815290604052610ce5565b867f0000000000000000000000000000000000000000000000000000000000000000876040518763ffffffff1660e01b8152600401610bda96959493929190611642565b60006040518083038186803b158015610bf257600080fd5b505afa158015610c06573d6000803e3d6000fd5b5050506000838152600460205260409020805460ff19166001179055507f5ec11bffe9ae1758125626544f36d2262a662a4b95db881ccdb10a7ff696b74a610c4b3390565b6040516001600160a01b03909116815260200160405180910390a150505050565b610c74610d1a565b6001600160a01b038116610cd95760405162461bcd60e51b815260206004820152602660248201527f4f776e61626c653a206e6577206f776e657220697320746865207a65726f206160448201526564647265737360d01b6064820152608401610414565b610ce281610d74565b50565b6000600882604051602001610cfa919061167a565b60408051601f198184030181529190528051602090910120901c92915050565b6000546001600160a01b031633146105f75760405162461bcd60e51b815260206004820181905260248201527f4f776e61626c653a2063616c6c6572206973206e6f7420746865206f776e65726044820152606401610414565b600080546001600160a01b038381166001600160a01b0319831681178455604051919092169283917f8be0079c531659141344cd1fd0a4f28419497f9722a3daafe3b4186f6b6457e09190a35050565b60008082600003610dda57506000905080610df1565b6001838581610deb57610deb611696565b04915091505b9250929050565b60008083600003610e0f5750600190506000610df1565b83830283858281610e2257610e22611696565b0414610e35576000809250925050610df1565b60019590945092505050565b604080518082019091526001600160a01b038316815260ff821660208201526000610e6f62278d008661102c565b610e7990426116ac565b6040805160c0810182526000602082018190529181018290526060808201839052608082015260a0810191909152338152909150610eb682611041565b67ffffffffffffffff166020828101919091526000604080840191909152805185516001600160a01b0316818401529185015160ff169082015260600160408051601f198184030181529181526080830191909152600060a08301819052815180830183527f0000000000000000000000000000000000000000000000000000000000000000815260208101849052915163f17325e760e01b81526001600160a01b037f0000000000000000000000000000000000000000000000000000000000000000169063f17325e790610f909085906004016116bf565b6020604051808303816000875af1158015610faf573d6000803e3d6000fd5b505050506040513d601f19601f82011682018060405250810190610fd391906113de565b9050806110225760405162461bcd60e51b815260206004820152601a60248201527f4661696c656420746f20637265617465206174746573745569640000000000006044820152606401610414565b5050505050505050565b60006110388284611742565b90505b92915050565b600067ffffffffffffffff8211156110aa5760405162461bcd60e51b815260206004820152602660248201527f53616665436173743a2076616c756520646f65736e27742066697420696e203660448201526534206269747360d01b6064820152608401610414565b5090565b80356001600160a01b03811681146110c557600080fd5b919050565b600080604083850312156110dd57600080fd5b6110e6836110ae565b946020939093013593505050565b60005b8381101561110f5781810151838201526020016110f7565b50506000910152565b600081518084526111308160208601602086016110f4565b601f01601f19169290920160200192915050565b6080815260006111576080830187611118565b82810360208401526111698187611118565b9050828103604084015261117d8186611118565b91505082606083015295945050505050565b6000602082840312156111a157600080fd5b5035919050565b634e487b7160e01b600052604160045260246000fd5b600082601f8301126111cf57600080fd5b813567ffffffffffffffff808211156111ea576111ea6111a8565b604051601f8301601f19908116603f01168101908282118183101715611212576112126111a8565b8160405283815286602085880101111561122b57600080fd5b836020870160208301376000602085830101528094505050505092915050565b6000806000806080858703121561126157600080fd5b843567ffffffffffffffff8082111561127957600080fd5b611285888389016111be565b9550602087013591508082111561129b57600080fd5b6112a7888389016111be565b945060408701359150808211156112bd57600080fd5b506112ca878288016111be565b949793965093946060013593505050565b803560ff811681146110c557600080fd5b600080604083850312156112ff57600080fd5b611308836110ae565b9150611316602084016112db565b90509250929050565b6000806040838503121561133257600080fd5b6110e6836112db565b60008060008061016080868803121561135357600080fd5b61135c866110ae565b9450602086013593506040860135925086818701111561137b57600080fd5b509295919450926060019150565b60006020828403121561139b57600080fd5b611038826110ae565b600181811c908216806113b857607f821691505b6020821081036113d857634e487b7160e01b600052602260045260246000fd5b50919050565b6000602082840312156113f057600080fd5b5051919050565b602080825260169082015275496e73756666696369656e7420616c6c6f77616e636560501b604082015260600190565b6001600160a01b039384168152919092166020820152604081019190915260600190565b60006020828403121561145d57600080fd5b8151801515811461146d57600080fd5b9392505050565b6020808252600f908201526e151c985b9cd9995c8819985a5b1959608a1b604082015260600190565b601f8211156114e757600081815260208120601f850160051c810160208610156114c45750805b601f850160051c820191505b818110156114e3578281556001016114d0565b5050505b505050565b815167ffffffffffffffff811115611506576115066111a8565b61151a8161151484546113a4565b8461149d565b602080601f83116001811461154f57600084156115375750858301515b600019600386901b1c1916600185901b1785556114e3565b600085815260208120601f198616915b8281101561157e5788860151825594840194600190910190840161155f565b508582101561159c5787850151600019600388901b60f8161c191681555b5050505050600190811b01905550565b634e487b7160e01b600052601160045260246000fd5b60ff818116838216019081111561103b5761103b6115ac565b6001600160a01b038716815260ff8616602082015260c06040820181905260009061160890830187611118565b828103606084015261161a8187611118565b9050828103608084015261162e8186611118565b9150508260a0830152979650505050505050565b60006101a0820190508782528660208301528560408301528460608301528360808301526101008360a0840137979650505050505050565b6000825161168c8184602087016110f4565b9190910192915050565b634e487b7160e01b600052601260045260246000fd5b8082018082111561103b5761103b6115ac565b60208152815160208201526000602083015160408084015260018060a01b03815116606084015267ffffffffffffffff60208201511660808401526040810151151560a0840152606081015160c0840152608081015160c060e085015261172a610120850182611118565b905060a0820151610100850152809250505092915050565b808202811582820484141761103b5761103b6115ac56fea26469706673582212200fdc794f45db28e0621f714de2d4efa3a4086fbc4293c4b2e7faa7ab7951575164736f6c63430008120033",
  "linkReferences": {},
  "deployedLinkReferences": {}
}